{
  "_format": "hh-sol-artifact-1",
  "contractName": "WalletReport",
  "sourceName": "contracts/WalletAgent.sol",
  "abi": [
    {
      "inputs": [],
      "stateMutability": "nonpayable",
      "type": "constructor"
    },
    {
      "anonymous": false,
      "inputs": [
        {
          "indexed": false,
          "internalType": "uint256",
          "name": "id",
          "type": "uint256"
        },
        {
          "indexed": false,
          "internalType": "uint256",
          "name": "timestamp",
          "type": "uint256"
        },
        {
          "indexed": false,
          "internalType": "string",
          "name": "nickname",
          "type": "string"
        },
        {
          "indexed": true,
          "internalType": "address",
          "name": "from",
          "type": "address"
        },
        {
          "indexed": false,
          "internalType": "string",
          "name": "reportedAddress",
          "type": "string"
        }
      ],
      "name": "NewReport",
      "type": "event"
    },
    {
      "anonymous": false,
      "inputs": [
        {
          "indexed": true,
          "internalType": "address",
          "name": "agent",
          "type": "address"
        },
        {
          "indexed": false,
          "internalType": "uint256",
          "name": "id",
          "type": "uint256"
        },
        {
          "indexed": false,
          "internalType": "uint256",
          "name": "timestamp",
          "type": "uint256"
        }
      ],
      "name": "ValidateAddr",
      "type": "event"
    },
    {
      "inputs": [
        {
          "internalType": "string",
          "name": "_reportedAddress",
          "type": "string"
        },
        {
          "internalType": "string",
          "name": "_nickname",
          "type": "string"
        }
      ],
      "name": "addReport",
      "outputs": [],
      "stateMutability": "nonpayable",
      "type": "function"
    },
    {
      "inputs": [],
      "name": "getAllReports",
      "outputs": [
        {
          "components": [
            {
              "internalType": "uint256",
              "name": "id",
              "type": "uint256"
            },
            {
              "internalType": "uint256",
              "name": "timestamp",
              "type": "uint256"
            },
            {
              "internalType": "string",
              "name": "nickname",
              "type": "string"
            },
            {
              "internalType": "address",
              "name": "agent",
              "type": "address"
            },
            {
              "internalType": "string",
              "name": "reportedAddress",
              "type": "string"
            }
          ],
          "internalType": "struct WalletReport.Report[]",
          "name": "",
          "type": "tuple[]"
        }
      ],
      "stateMutability": "view",
      "type": "function"
    },
    {
      "inputs": [],
      "name": "getMyReports",
      "outputs": [
        {
          "components": [
            {
              "internalType": "uint256",
              "name": "id",
              "type": "uint256"
            },
            {
              "internalType": "uint256",
              "name": "timestamp",
              "type": "uint256"
            },
            {
              "internalType": "string",
              "name": "nickname",
              "type": "string"
            },
            {
              "internalType": "address",
              "name": "agent",
              "type": "address"
            },
            {
              "internalType": "string",
              "name": "reportedAddress",
              "type": "string"
            }
          ],
          "internalType": "struct WalletReport.Report[]",
          "name": "",
          "type": "tuple[]"
        }
      ],
      "stateMutability": "view",
      "type": "function"
    },
    {
      "inputs": [
        {
          "internalType": "address",
          "name": "_addr",
          "type": "address"
        }
      ],
      "name": "getReportsByAddress",
      "outputs": [
        {
          "components": [
            {
              "internalType": "uint256",
              "name": "id",
              "type": "uint256"
            },
            {
              "internalType": "uint256",
              "name": "timestamp",
              "type": "uint256"
            },
            {
              "internalType": "string",
              "name": "nickname",
              "type": "string"
            },
            {
              "internalType": "address",
              "name": "agent",
              "type": "address"
            },
            {
              "internalType": "string",
              "name": "reportedAddress",
              "type": "string"
            }
          ],
          "internalType": "struct WalletReport.Report[]",
          "name": "",
          "type": "tuple[]"
        }
      ],
      "stateMutability": "view",
      "type": "function"
    },
    {
      "inputs": [],
      "name": "getTotalReports",
      "outputs": [
        {
          "internalType": "uint256",
          "name": "",
          "type": "uint256"
        }
      ],
      "stateMutability": "view",
      "type": "function"
    },
    {
      "inputs": [
        {
          "internalType": "uint256",
          "name": "_confirmation",
          "type": "uint256"
        }
      ],
      "name": "validateReport",
      "outputs": [],
      "stateMutability": "nonpayable",
      "type": "function"
    }
  ],
  "bytecode": "0x60806040523480156200001157600080fd5b506200005d6040518060400160405280601881526020017f57616c6c6574204167656e7420696e697469616c697a656400000000000000008152506200006360201b62000a041760201c565b620001f7565b62000103816040516024016200007a919062000170565b6040516020818303038152906040527f41304fac000000000000000000000000000000000000000000000000000000007bffffffffffffffffffffffffffffffffffffffffffffffffffffffff19166020820180517bffffffffffffffffffffffffffffffffffffffffffffffffffffffff83818316178352505050506200010660201b60201c565b50565b60008151905060006a636f6e736f6c652e6c6f679050602083016000808483855afa5050505050565b60006200013c8262000194565b6200014881856200019f565b93506200015a818560208601620001b0565b6200016581620001e6565b840191505092915050565b600060208201905081810360008301526200018c81846200012f565b905092915050565b600081519050919050565b600082825260208201905092915050565b60005b83811015620001d0578082015181840152602081019050620001b3565b83811115620001e0576000848401525b50505050565b6000601f19601f8301169050919050565b61145d80620002076000396000f3fe608060405234801561001057600080fd5b50600436106100625760003560e01c80634030f712146100675780635f965f7014610083578063681dbbbf146100b35780637a3e0066146100d1578063d4e99500146100ed578063f3d3ddfa1461010b575b600080fd5b610081600480360381019061007c9190610dc8565b610129565b005b61009d60048036038101906100989190610d33565b6102ae565b6040516100aa919061100b565b60405180910390f35b6100bb6104fc565b6040516100c8919061100b565b60405180910390f35b6100eb60048036038101906100e69190610d5c565b61050c565b005b6100f56107cc565b60405161010291906110cf565b60405180910390f35b610113610817565b604051610120919061100b565b60405180910390f35b600460003373ffffffffffffffffffffffffffffffffffffffff1673ffffffffffffffffffffffffffffffffffffffff168152602001908152602001600020600082815260200190815260200160002060009054906101000a900460ff16156101c7576040517f08c379a00000000000000000000000000000000000000000000000000000000081526004016101be906110af565b60405180910390fd5b60016003600083815260200190815260200160002060008282546101eb919061122d565b925050819055506001600460003373ffffffffffffffffffffffffffffffffffffffff1673ffffffffffffffffffffffffffffffffffffffff168152602001908152602001600020600083815260200190815260200160002060006101000a81548160ff0219169083151502179055503373ffffffffffffffffffffffffffffffffffffffff167f3689d27b8c23ecc434670b28d5265dd5854571685e653d35ce8bf3798c4cfaa182426040516102a39291906110ea565b60405180910390a250565b60606102d26040518060600160405280602881526020016114006028913983610a9d565b600260008373ffffffffffffffffffffffffffffffffffffffff1673ffffffffffffffffffffffffffffffffffffffff168152602001908152602001600020805480602002602001604051908101604052809291908181526020016000905b828210156104f157838290600052602060002090600502016040518060a0016040529081600082015481526020016001820154815260200160028201805461037890611301565b80601f01602080910402602001604051908101604052809291908181526020018280546103a490611301565b80156103f15780601f106103c6576101008083540402835291602001916103f1565b820191906000526020600020905b8154815290600101906020018083116103d457829003601f168201915b505050505081526020016003820160009054906101000a900473ffffffffffffffffffffffffffffffffffffffff1673ffffffffffffffffffffffffffffffffffffffff1673ffffffffffffffffffffffffffffffffffffffff16815260200160048201805461046090611301565b80601f016020809104026020016040519081016040528092919081815260200182805461048c90611301565b80156104d95780601f106104ae576101008083540402835291602001916104d9565b820191906000526020600020905b8154815290600101906020018083116104bc57829003601f168201915b50505050508152505081526020019060010190610331565b505050509050919050565b6060610507336102ae565b905090565b600060018054905090506001600080828254610528919061122d565b9250508190555061056e6040518060400160405280601081526020017f257320686173207265706f72746564210000000000000000000000000000000081525033610a9d565b60006040518060a001604052808381526020014281526020018481526020013373ffffffffffffffffffffffffffffffffffffffff16815260200185815250905060018190806001815401808255809150506001900390600052602060002090600502016000909190919091506000820151816000015560208201518160010155604082015181600201908051906020019061060b929190610bfe565b5060608201518160030160006101000a81548173ffffffffffffffffffffffffffffffffffffffff021916908373ffffffffffffffffffffffffffffffffffffffff160217905550608082015181600401908051906020019061066f929190610bfe565b505050600260003373ffffffffffffffffffffffffffffffffffffffff1673ffffffffffffffffffffffffffffffffffffffff1681526020019081526020016000208190806001815401808255809150506001900390600052602060002090600502016000909190919091506000820151816000015560208201518160010155604082015181600201908051906020019061070b929190610bfe565b5060608201518160030160006101000a81548173ffffffffffffffffffffffffffffffffffffffff021916908373ffffffffffffffffffffffffffffffffffffffff160217905550608082015181600401908051906020019061076f929190610bfe565b5050503373ffffffffffffffffffffffffffffffffffffffff167fd87719bd6153b4d74c0ff5008aaefbb12c4ad7474494d9cf07212aa77407e2e1834286886040516107be9493929190611113565b60405180910390a250505050565b600061080f6040518060400160405280601c81526020017f57652068617665202564207265706f727465642077616c6c6574732100000000815250600054610b39565b600054905090565b60606001805480602002602001604051908101604052809291908181526020016000905b828210156109fb57838290600052602060002090600502016040518060a0016040529081600082015481526020016001820154815260200160028201805461088290611301565b80601f01602080910402602001604051908101604052809291908181526020018280546108ae90611301565b80156108fb5780601f106108d0576101008083540402835291602001916108fb565b820191906000526020600020905b8154815290600101906020018083116108de57829003601f168201915b505050505081526020016003820160009054906101000a900473ffffffffffffffffffffffffffffffffffffffff1673ffffffffffffffffffffffffffffffffffffffff1673ffffffffffffffffffffffffffffffffffffffff16815260200160048201805461096a90611301565b80601f016020809104026020016040519081016040528092919081815260200182805461099690611301565b80156109e35780601f106109b8576101008083540402835291602001916109e3565b820191906000526020600020905b8154815290600101906020018083116109c657829003601f168201915b5050505050815250508152602001906001019061083b565b50505050905090565b610a9a81604051602401610a18919061102d565b6040516020818303038152906040527f41304fac000000000000000000000000000000000000000000000000000000007bffffffffffffffffffffffffffffffffffffffffffffffffffffffff19166020820180517bffffffffffffffffffffffffffffffffffffffffffffffffffffffff8381831617835250505050610bd5565b50565b610b358282604051602401610ab392919061104f565b6040516020818303038152906040527f319af333000000000000000000000000000000000000000000000000000000007bffffffffffffffffffffffffffffffffffffffffffffffffffffffff19166020820180517bffffffffffffffffffffffffffffffffffffffffffffffffffffffff8381831617835250505050610bd5565b5050565b610bd18282604051602401610b4f92919061107f565b6040516020818303038152906040527f9710a9d0000000000000000000000000000000000000000000000000000000007bffffffffffffffffffffffffffffffffffffffffffffffffffffffff19166020820180517bffffffffffffffffffffffffffffffffffffffffffffffffffffffff8381831617835250505050610bd5565b5050565b60008151905060006a636f6e736f6c652e6c6f679050602083016000808483855afa5050505050565b828054610c0a90611301565b90600052602060002090601f016020900481019282610c2c5760008555610c73565b82601f10610c4557805160ff1916838001178555610c73565b82800160010185558215610c73579182015b82811115610c72578251825591602001919060010190610c57565b5b509050610c809190610c84565b5090565b5b80821115610c9d576000816000905550600101610c85565b5090565b6000610cb4610caf84611197565b611166565b905082815260208101848484011115610ccc57600080fd5b610cd78482856112bf565b509392505050565b600081359050610cee816113d1565b92915050565b600082601f830112610d0557600080fd5b8135610d15848260208601610ca1565b91505092915050565b600081359050610d2d816113e8565b92915050565b600060208284031215610d4557600080fd5b6000610d5384828501610cdf565b91505092915050565b60008060408385031215610d6f57600080fd5b600083013567ffffffffffffffff811115610d8957600080fd5b610d9585828601610cf4565b925050602083013567ffffffffffffffff811115610db257600080fd5b610dbe85828601610cf4565b9150509250929050565b600060208284031215610dda57600080fd5b6000610de884828501610d1e565b91505092915050565b6000610dfd8383610f70565b905092915050565b610e0e81611283565b82525050565b610e1d81611283565b82525050565b6000610e2e826111d7565b610e3881856111fa565b935083602082028501610e4a856111c7565b8060005b85811015610e865784840389528151610e678582610df1565b9450610e72836111ed565b925060208a01995050600181019050610e4e565b50829750879550505050505092915050565b6000610ea3826111e2565b610ead818561120b565b9350610ebd8185602086016112ce565b610ec6816113c0565b840191505092915050565b6000610edc826111e2565b610ee6818561121c565b9350610ef68185602086016112ce565b610eff816113c0565b840191505092915050565b6000610f1760328361121c565b91507f43616e27742076616c696461746520746865207265706f727420796f7527766560008301527f20616c726561647920636f6e6669726d656400000000000000000000000000006020830152604082019050919050565b600060a083016000830151610f886000860182610fed565b506020830151610f9b6020860182610fed565b5060408301518482036040860152610fb38282610e98565b9150506060830151610fc86060860182610e05565b5060808301518482036080860152610fe08282610e98565b9150508091505092915050565b610ff6816112b5565b82525050565b611005816112b5565b82525050565b600060208201905081810360008301526110258184610e23565b905092915050565b600060208201905081810360008301526110478184610ed1565b905092915050565b600060408201905081810360008301526110698185610ed1565b90506110786020830184610e14565b9392505050565b600060408201905081810360008301526110998185610ed1565b90506110a86020830184610ffc565b9392505050565b600060208201905081810360008301526110c881610f0a565b9050919050565b60006020820190506110e46000830184610ffc565b92915050565b60006040820190506110ff6000830185610ffc565b61110c6020830184610ffc565b9392505050565b60006080820190506111286000830187610ffc565b6111356020830186610ffc565b81810360408301526111478185610ed1565b9050818103606083015261115b8184610ed1565b905095945050505050565b6000604051905081810181811067ffffffffffffffff8211171561118d5761118c611391565b5b8060405250919050565b600067ffffffffffffffff8211156111b2576111b1611391565b5b601f19601f8301169050602081019050919050565b6000819050602082019050919050565b600081519050919050565b600081519050919050565b6000602082019050919050565b600082825260208201905092915050565b600082825260208201905092915050565b600082825260208201905092915050565b6000611238826112b5565b9150611243836112b5565b9250827fffffffffffffffffffffffffffffffffffffffffffffffffffffffffffffffff0382111561127857611277611333565b5b828201905092915050565b600061128e82611295565b9050919050565b600073ffffffffffffffffffffffffffffffffffffffff82169050919050565b6000819050919050565b82818337600083830152505050565b60005b838110156112ec5780820151818401526020810190506112d1565b838111156112fb576000848401525b50505050565b6000600282049050600182168061131957607f821691505b6020821081141561132d5761132c611362565b5b50919050565b7f4e487b7100000000000000000000000000000000000000000000000000000000600052601160045260246000fd5b7f4e487b7100000000000000000000000000000000000000000000000000000000600052602260045260246000fd5b7f4e487b7100000000000000000000000000000000000000000000000000000000600052604160045260246000fd5b6000601f19601f8301169050919050565b6113da81611283565b81146113e557600080fd5b50565b6113f1816112b5565b81146113fc57600080fd5b5056fe47657474696e67207265706f727473207375626d697474656420627920616464726573732025732ea2646970667358221220369cb6d8115646154c664856bc0a67ae2509c17690e08a9901197cda574a32ff64736f6c63430008000033",
  "linkReferences": {},
  "deployedLinkReferences": {}
}