{
  "_format": "hh-sol-artifact-1",
  "contractName": "WavePortal",
  "sourceName": "contracts/wavePortal.sol",
  "abi": [
    {
      "inputs": [],
      "stateMutability": "payable",
      "type": "constructor"
    },
    {
      "anonymous": false,
      "inputs": [
        {
          "indexed": true,
          "internalType": "address",
          "name": "from",
          "type": "address"
        },
        {
          "indexed": false,
          "internalType": "uint256",
          "name": "timestamp",
          "type": "uint256"
        },
        {
          "indexed": false,
          "internalType": "string",
          "name": "message",
          "type": "string"
        },
        {
          "indexed": false,
          "internalType": "string",
          "name": "nickname",
          "type": "string"
        }
      ],
      "name": "NewWave",
      "type": "event"
    },
    {
      "inputs": [],
      "name": "getAllWaves",
      "outputs": [
        {
          "components": [
            {
              "internalType": "address",
              "name": "waver",
              "type": "address"
            },
            {
              "internalType": "string",
              "name": "message",
              "type": "string"
            },
            {
              "internalType": "uint256",
              "name": "timestamp",
              "type": "uint256"
            },
            {
              "internalType": "string",
              "name": "nickname",
              "type": "string"
            }
          ],
          "internalType": "struct WavePortal.Wave[]",
          "name": "",
          "type": "tuple[]"
        }
      ],
      "stateMutability": "view",
      "type": "function"
    },
    {
      "inputs": [],
      "name": "getTotalWaves",
      "outputs": [
        {
          "internalType": "uint256",
          "name": "",
          "type": "uint256"
        }
      ],
      "stateMutability": "view",
      "type": "function"
    },
    {
      "inputs": [
        {
          "internalType": "address",
          "name": "",
          "type": "address"
        }
      ],
      "name": "lastWavedAt",
      "outputs": [
        {
          "internalType": "uint256",
          "name": "",
          "type": "uint256"
        }
      ],
      "stateMutability": "view",
      "type": "function"
    },
    {
      "inputs": [
        {
          "internalType": "string",
          "name": "_message",
          "type": "string"
        },
        {
          "internalType": "string",
          "name": "_nickname",
          "type": "string"
        }
      ],
      "name": "wave",
      "outputs": [],
      "stateMutability": "nonpayable",
      "type": "function"
    }
  ],
  "bytecode": "0x60806040526200004f6040518060400160405280601981526020017f4920414d20534d41525420434f4e54524143542e20504f472e000000000000008152506200007760201b620006ff1760201c565b606444426200005f9190620001c4565b6200006b919062000261565b60018190555062000308565b62000117816040516024016200008e919062000184565b6040516020818303038152906040527f41304fac000000000000000000000000000000000000000000000000000000007bffffffffffffffffffffffffffffffffffffffffffffffffffffffff19166020820180517bffffffffffffffffffffffffffffffffffffffffffffffffffffffff83818316178352505050506200011a60201b60201c565b50565b60008151905060006a636f6e736f6c652e6c6f679050602083016000808483855afa5050505050565b60006200015082620001a8565b6200015c8185620001b3565b93506200016e8185602086016200022b565b6200017981620002f7565b840191505092915050565b60006020820190508181036000830152620001a0818462000143565b905092915050565b600081519050919050565b600082825260208201905092915050565b6000620001d18262000221565b9150620001de8362000221565b9250827fffffffffffffffffffffffffffffffffffffffffffffffffffffffffffffffff0382111562000216576200021562000299565b5b828201905092915050565b6000819050919050565b60005b838110156200024b5780820151818401526020810190506200022e565b838111156200025b576000848401525b50505050565b60006200026e8262000221565b91506200027b8362000221565b9250826200028e576200028d620002c8565b5b828206905092915050565b7f4e487b7100000000000000000000000000000000000000000000000000000000600052601160045260246000fd5b7f4e487b7100000000000000000000000000000000000000000000000000000000600052601260045260246000fd5b6000601f19601f8301169050919050565b61121180620003186000396000f3fe608060405234801561001057600080fd5b506004361061004c5760003560e01c806351872959146100515780639a2cdc081461006d578063a42a46631461008b578063bd43a908146100bb575b600080fd5b61006b60048036038101906100669190610a42565b6100d9565b005b6100756104b9565b6040516100829190610e8e565b60405180910390f35b6100a560048036038101906100a09190610a19565b610504565b6040516100b29190610e8e565b60405180910390f35b6100c361051c565b6040516100d09190610d8a565b60405180910390f35b42610384600360003373ffffffffffffffffffffffffffffffffffffffff1673ffffffffffffffffffffffffffffffffffffffff168152602001908152602001600020546101279190610fc0565b10610167576040517f08c379a000000000000000000000000000000000000000000000000000000000815260040161015e90610e6e565b60405180910390fd5b42600360003373ffffffffffffffffffffffffffffffffffffffff1673ffffffffffffffffffffffffffffffffffffffff1681526020019081526020016000208190555060016000808282546101bd9190610fc0565b925050819055506102036040518060400160405280600d81526020017f257320686173207761766564210000000000000000000000000000000000000081525033610798565b600260405180608001604052803373ffffffffffffffffffffffffffffffffffffffff16815260200184815260200142815260200183815250908060018154018082558091505060019003906000526020600020906004020160009091909190915060008201518160000160006101000a81548173ffffffffffffffffffffffffffffffffffffffff021916908373ffffffffffffffffffffffffffffffffffffffff16021790555060208201518160010190805190602001906102c89291906108f9565b506040820151816002015560608201518160030190805190602001906102ef9291906108f9565b505050606460015442446103039190610fc0565b61030d9190610fc0565b61031791906110c6565b600181905550603260015411610463576103666040518060400160405280600781526020017f257320776f6e210000000000000000000000000000000000000000000000000081525033610798565b6000655af3107a40009050478111156103b4576040517f08c379a00000000000000000000000000000000000000000000000000000000081526004016103ab90610e2e565b60405180910390fd5b60003373ffffffffffffffffffffffffffffffffffffffff16826040516103da90610d75565b60006040518083038185875af1925050503d8060008114610417576040519150601f19603f3d011682016040523d82523d6000602084013e61041c565b606091505b5050905080610460576040517f08c379a000000000000000000000000000000000000000000000000000000000815260040161045790610e4e565b60405180910390fd5b50505b3373ffffffffffffffffffffffffffffffffffffffff167f0646f10b0148fe8db9a43af10b6956b53e1478c47afc7132c17e243449dfd3394284846040516104ad93929190610ea9565b60405180910390a25050565b60006104fc6040518060400160405280601781526020017f5765206861766520256420746f74616c20776176657321000000000000000000815250600054610834565b600054905090565b60036020528060005260406000206000915090505481565b60606002805480602002602001604051908101604052809291908181526020016000905b828210156106f657838290600052602060002090600402016040518060800160405290816000820160009054906101000a900473ffffffffffffffffffffffffffffffffffffffff1673ffffffffffffffffffffffffffffffffffffffff1673ffffffffffffffffffffffffffffffffffffffff1681526020016001820180546105c990611094565b80601f01602080910402602001604051908101604052809291908181526020018280546105f590611094565b80156106425780601f1061061757610100808354040283529160200191610642565b820191906000526020600020905b81548152906001019060200180831161062557829003601f168201915b505050505081526020016002820154815260200160038201805461066590611094565b80601f016020809104026020016040519081016040528092919081815260200182805461069190611094565b80156106de5780601f106106b3576101008083540402835291602001916106de565b820191906000526020600020905b8154815290600101906020018083116106c157829003601f168201915b50505050508152505081526020019060010190610540565b50505050905090565b610795816040516024016107139190610dac565b6040516020818303038152906040527f41304fac000000000000000000000000000000000000000000000000000000007bffffffffffffffffffffffffffffffffffffffffffffffffffffffff19166020820180517bffffffffffffffffffffffffffffffffffffffffffffffffffffffff83818316178352505050506108d0565b50565b61083082826040516024016107ae929190610dce565b6040516020818303038152906040527f319af333000000000000000000000000000000000000000000000000000000007bffffffffffffffffffffffffffffffffffffffffffffffffffffffff19166020820180517bffffffffffffffffffffffffffffffffffffffffffffffffffffffff83818316178352505050506108d0565b5050565b6108cc828260405160240161084a929190610dfe565b6040516020818303038152906040527f9710a9d0000000000000000000000000000000000000000000000000000000007bffffffffffffffffffffffffffffffffffffffffffffffffffffffff19166020820180517bffffffffffffffffffffffffffffffffffffffffffffffffffffffff83818316178352505050506108d0565b5050565b60008151905060006a636f6e736f6c652e6c6f679050602083016000808483855afa5050505050565b82805461090590611094565b90600052602060002090601f016020900481019282610927576000855561096e565b82601f1061094057805160ff191683800117855561096e565b8280016001018555821561096e579182015b8281111561096d578251825591602001919060010190610952565b5b50905061097b919061097f565b5090565b5b80821115610998576000816000905550600101610980565b5090565b60006109af6109aa84610f1f565b610eee565b9050828152602081018484840111156109c757600080fd5b6109d2848285611052565b509392505050565b6000813590506109e9816111c4565b92915050565b600082601f830112610a0057600080fd5b8135610a1084826020860161099c565b91505092915050565b600060208284031215610a2b57600080fd5b6000610a39848285016109da565b91505092915050565b60008060408385031215610a5557600080fd5b600083013567ffffffffffffffff811115610a6f57600080fd5b610a7b858286016109ef565b925050602083013567ffffffffffffffff811115610a9857600080fd5b610aa4858286016109ef565b9150509250929050565b6000610aba8383610ced565b905092915050565b610acb81611016565b82525050565b610ada81611016565b82525050565b6000610aeb82610f5f565b610af58185610f82565b935083602082028501610b0785610f4f565b8060005b85811015610b435784840389528151610b248582610aae565b9450610b2f83610f75565b925060208a01995050600181019050610b0b565b50829750879550505050505092915050565b6000610b6082610f6a565b610b6a8185610f9e565b9350610b7a818560208601611061565b610b83816111b3565b840191505092915050565b6000610b9982610f6a565b610ba38185610faf565b9350610bb3818560208601611061565b610bbc816111b3565b840191505092915050565b6000610bd4603483610faf565b91507f547279696e6720746f207769746864726177206d6f7265206d6f6e657920746860008301527f616e2074686520636f6e7472616374206861732e0000000000000000000000006020830152604082019050919050565b6000610c3a602783610faf565b91507f4661696c656420746f207769746864726177206d6f6e65792066726f6d20636f60008301527f6e74726163742e000000000000000000000000000000000000000000000000006020830152604082019050919050565b6000610ca0600083610f93565b9150600082019050919050565b6000610cba600883610faf565b91507f576169742031356d0000000000000000000000000000000000000000000000006000830152602082019050919050565b6000608083016000830151610d056000860182610ac2565b5060208301518482036020860152610d1d8282610b55565b9150506040830151610d326040860182610d57565b5060608301518482036060860152610d4a8282610b55565b9150508091505092915050565b610d6081611048565b82525050565b610d6f81611048565b82525050565b6000610d8082610c93565b9150819050919050565b60006020820190508181036000830152610da48184610ae0565b905092915050565b60006020820190508181036000830152610dc68184610b8e565b905092915050565b60006040820190508181036000830152610de88185610b8e565b9050610df76020830184610ad1565b9392505050565b60006040820190508181036000830152610e188185610b8e565b9050610e276020830184610d66565b9392505050565b60006020820190508181036000830152610e4781610bc7565b9050919050565b60006020820190508181036000830152610e6781610c2d565b9050919050565b60006020820190508181036000830152610e8781610cad565b9050919050565b6000602082019050610ea36000830184610d66565b92915050565b6000606082019050610ebe6000830186610d66565b8181036020830152610ed08185610b8e565b90508181036040830152610ee48184610b8e565b9050949350505050565b6000604051905081810181811067ffffffffffffffff82111715610f1557610f14611184565b5b8060405250919050565b600067ffffffffffffffff821115610f3a57610f39611184565b5b601f19601f8301169050602081019050919050565b6000819050602082019050919050565b600081519050919050565b600081519050919050565b6000602082019050919050565b600082825260208201905092915050565b600081905092915050565b600082825260208201905092915050565b600082825260208201905092915050565b6000610fcb82611048565b9150610fd683611048565b9250827fffffffffffffffffffffffffffffffffffffffffffffffffffffffffffffffff0382111561100b5761100a6110f7565b5b828201905092915050565b600061102182611028565b9050919050565b600073ffffffffffffffffffffffffffffffffffffffff82169050919050565b6000819050919050565b82818337600083830152505050565b60005b8381101561107f578082015181840152602081019050611064565b8381111561108e576000848401525b50505050565b600060028204905060018216806110ac57607f821691505b602082108114156110c0576110bf611155565b5b50919050565b60006110d182611048565b91506110dc83611048565b9250826110ec576110eb611126565b5b828206905092915050565b7f4e487b7100000000000000000000000000000000000000000000000000000000600052601160045260246000fd5b7f4e487b7100000000000000000000000000000000000000000000000000000000600052601260045260246000fd5b7f4e487b7100000000000000000000000000000000000000000000000000000000600052602260045260246000fd5b7f4e487b7100000000000000000000000000000000000000000000000000000000600052604160045260246000fd5b6000601f19601f8301169050919050565b6111cd81611016565b81146111d857600080fd5b5056fea2646970667358221220b672030be4bf4d841f1a7a129befb27ca9cf92d1eccf1bc3823d491a46caa44364736f6c63430008000033",
  "linkReferences": {},
  "deployedLinkReferences": {}
}